:020000040800F2
:1000000000280020B5060008490600084B06000835
:100010004D0600084F0600085106000800000000C9
:10002000000000000000000000000000530600086F
:100030005506000800000000570600085906000891
:10004000FD060008FD060008FD060008FD06000884
:10005000FD060008FD060008FD060008FD06000874
:10006000FD060008FD060008FD060008FD06000864
:10007000FD060008FD060008FD060008FD06000854
:10008000FD060008FD060008FD060008FD06000844
:10009000FD060008FD060008FD060008FD06000834
:1000A000FD060008FD060008FD060008FD06000824
:1000B000FD060008FD06000800000000FD0600081F
:1000C000FD0600080000000000000000FD0600081A
:1000D00000000000FD060008FD060008000000000A
:1000E0005D060008FD060008FD060008000000008F
:1000F0000000000000000000000000000000000000
:0C01000000000000000000005FF808F1A3
:10010C0010B5054C237833B9044B13B10448AFF345
:10011C0000800123237010BD64000020000000004B
:10012C00C420000808B5034B1BB103490348AFF3C7
:10013C00008008BD0000000068000020C4200008FA
:10014C0008460023014A024901F006BB2C21000895
:10015C003821000808460123014A024901F0FCBA83
:10016C003E2100083821000808460223014A0249B2
:10017C0001F0F2BA4A21000838210008084603238E
:10018C00014A024901F0E8BA56210008382100085A
:10019C002DE9F041164E4FF014083546154C15F864
:1001AC00030B06F1120708FB004029460369984728
:1001BC007378394608FB03400369984701F048FA05
:1001CC000F21B07801F03AFA0B4801F02EFA002119
:1001DC00084601F033FA284601F027FA01200021E5
:1001EC0001F02CFA3846BDE8F04101F01EBA00BF10
:1001FC0080000020A40000206221000800B591B00E
:10020C002422002107A801F0C7FA1422002101A81A
:10021C0001F0C2FA022301210693102306A8CDE9AE
:10022C000A1300F09DFE014608B172B6FEE70F23DB
:10023C00CDE90300CDE90130059001A801F052F899
:10024C0008B172B6FEE711B05DF804FB2DE9F0477A
:10025C0098B000F073FAFFF7D1FF1022002113A819
:10026C0001F09AFA9B4B4FF400519A699A4842F06C
:10027C0010029A619A69012602F010020192019A09
:10028C009A69002442F004029A619A694FF48045FD
:10029C0002F004020292029A9A69904F42F008020C
:1002AC009A619B69002203F008030393039B00F0FF
:1002BC00C9FB4FF40053CDE913360223864813A92A
:1002CC00CDE9154300F0E6FA4FF44053844813A9E6
:1002DC00CDE91334159400F0DDFA824B804813A954
:1002EC00CDE91353159400F0D5FA22462146282067
:1002FC0000F06CFA282000F099FA4FF4E1337A48B8
:10030C00C0E900730C23C0E90244C0E90534046160
:10031C00C46101F0DDF8034608B172B6FEE773481C
:10032C007349744AC0E90233C0E90012C0E90453AE
:10033C00C0E90633036200F091FC074608B172B6BF
:10034C00FEE76D4C01F043F904AD304601F08AF93B
:10035C000FCC0FC5254655F8049B0DF1240C0FCD81
:10036C00ACE80F00D5F800800DF1380C04F118053D
:10037C000FCD2C34ACE80F000FCCD5F800C013AD6A
:10038C000FC5D4F800E00DF1100AC5F800E05B4D84
:10039C00BAE80F002C460FC4C4F8009005F1140401
:1003AC000DF12409B9E80F000FC4C4F8008005F161
:1003BC0028040DF13808B8E80F000FC4C4F800C0C9
:1003CC0005F13C0C13AC0FCCACE80F004C4C2846A0
:1003DC00E11CCCF800E027706670A770FFF7B0FE48
:1003EC001422637804F1120102FB0350036998474D
:1003FC004FF47A72434B1B68B3FBF2F3013BB3F13E
:10040C00807F09D24FF0E022F02153613E4B83F8FC
:10041C00231007239761136100253C4E3C4F01F0DC
:10042C008DF93870282000F00FFA3B78032B1CD87C
:10043C003278934233D93370364B37491A780132BC
:10044C00D2B21A700B789A4209D90133DBB20B7015
:10045C0032490A7801320A70627863702270A3788C
:10046C000BB90123A370FFF793FE282000F0DEF9EF
:10047C0000F082F9401BB0F5FA6FD0D9282000F0BB
:10048C00E3F900F079F94FF400510546124800F0F9
:10049C00DEFAFFF77DFE282000F0C8F9BEE7E4D2B3
:1004AC0033701C4B1D491A78013AD2B21A700B7872
:1004BC009A4209D2013BDBB20B7017490A78013A18
:1004CC000A70227823706270A378012BCBD10023A1
:1004DC00C8E700BF0010024000100140004400407B
:1004EC00000C014000003110F800002040010020F9
:1004FC0000540040A0860100DC200008A40000206D
:10050C00800000200400002000ED00E0F600002038
:10051C00F7000020F400002000000020F50000206F
:10052C000E4B82B09A6942F001029A619A6902F00C
:10053C0001020092009ADA6942F08052DA61DB69BA
:10054C00074A03F080530193019B536823F0E06347
:10055C0043F00073536002B0704700BF00100240BC
:10056C000000014010B5044686B01022002102A8FC
:10057C0001F012F92268114B9A421CD1104CC02286
:10058C00A369104843F00803A361A36902A903F00F
:10059C0008030093009B1223CDE902230323059348
:1005AC0000F078F9E36943F40013E361E36903F4C1
:1005BC0000130193019B06B010BD00BF0054004016
:1005CC0000100240000C014010B5044686B0102209
:1005DC00002102A801F0E0F82268164B9A4226D1BD
:1005EC0003F5E633DA69144842F40032DA61DA6969
:1005FC0002A902F400320092009A9A6942F00402B5
:10060C009A619B69042203F004030193019B02236A
:10061C00CDE902230323059300F03CF908210023C4
:10062C000548CDE9021302A9049300F033F906B092
:10063C0010BD00BF0044004000080140FEE7FEE78B
:10064C00FEE7FEE7FEE770477047704700F088B89A
:10065C0008B54FF4804000F005FABDE8084001F001
:10066C0019B800000B4A0346116810B509B90A49BC
:10067C001160106809490A4C0344091B8B4206D9C6
:10068C0001F092F80C2303604FF0FF3010BD1360A3
:10069C00FCE700BF94010020F0020020002800209D
:1006AC000004000070470000FFF7FCFF0B480C49EA
:1006BC000C4A002302E0D458C4500433C4188C42B2
:1006CC00F9D3094A094C002301E013600432A24219
:1006DC00FBD301F06FF8FFF7B9FD70470000002065
:1006EC0064000020CC21000864000020EC020020F3
:1006FC00FEE7000038B50E4B05461A784FF47A73B6
:10070C00B3FBF2F30B4A1068B0FBF3F000F0AEF859
:10071C00044658B90F2D09D8024629464FF0FF3030
:10072C0000F054F82046044B1D6038BD0120FCE756
:10073C0008000020040000200C000020074A08B527
:10074C001368032043F01003136000F02DF80F2002
:10075C00FFF7D0FFFFF7E4FE002008BD00200240A9
:10076C00034A044B11681B780B441360704700BF9D
:10077C009801002008000020014B1868704700BF4A
:10078C009801002038B50446FFF7F6FF0546631CB8
:10079C001EBF044B1B78E418FFF7EEFF431BA3426C
:1007AC00FAD338BD0800002007490302CA6803F4D5
:1007BC00E06322F4E0621204120C134343F0BF63B3
:1007CC0043F40033CB60704700ED00E0154B30B5BF
:1007DC00DC68C4F30224C4F10703251D042B28BFD5
:1007EC000423062D4FF0FF3594BF0024033C05FA7B
:1007FC0003F321EA0303A54022EA0502A3400028E3
:10080C0043EA0203ACBF00F16040074A4FEA03130E
:10081C00DBB2ABBF00F5614000F00F0080F8003395
:10082C00135430BD00ED00E014ED00E0002807DBB0
:10083C0001234109034A00F01F00834042F8213094
:10084C00704700BF00E100E000280CDB01220649E4
:10085C00430900F01F008240203341F82320BFF3EE
:10086C004F8FBFF36F8F704700E100E00138B0F19C
:10087C00807F0BD24FF0E023F021054A586182F8BB
:10088C0023100020072298611A61704701207047DD
:10089C0000ED00E02DE9F74F00221646DFF87CC191
:1008AC005F4BDFF880E1DFF880810D6835FA06F4E4
:1008BC0002D103B0BDE8F08F0127B74005EA070469
:1008CC0037EA050575D14D68032D06D8013D022D7B
:1008DC007ED8DFE805F08F949A00122D00F09280FC
:1008EC0069D8112D00F08880FF2C98BF81464FF0FD
:1008FC000F0B88BF00F104094FEA8605D9F8007088
:10090C0088BF203D0BFA05FA27EA0A0702FA05F51B
:10091C002F43C9F80070D1F8049019F0805F48D0CB
:10092C00DCF8185026F0030745F00105CCF81850F8
:10093C00DCF8185007F1804705F00105019507F523
:10094C00803706F0030A019D4FEA8A0ABD680BFA4C
:10095C000AFB25EA0B0B354DA8425AD005F58065EC
:10096C00A84258D005F58065A84214BF032502257E
:10097C0005FA0AF545EA0B05BD609D6819F4801F60
:10098C0014BF2543A5439D60DD6819F4001F14BFF7
:10099C002543A543DD605D6819F4003F14BF254372
:1009AC00A5435D601D6819F4803F14BF2543A54322
:1009BC001D60013679E7DFF878904D4508D011D8E5
:1009CC00A9F580194D4503D0754501D045458BD10E
:1009DC008A68E2B1012A08BF07614FF0080218BF0C
:1009EC00476181E7DFF84C904D45F1D009F580392E
:1009FC004D45ECE7CA6877E7CA68043274E7CA6801
:100A0C00083271E7CA680C326EE700226CE70422E8
:100A1C006AE70025ACE70125AAE700BF00100240F9
:100A2C0000040140000021100000111000080140DA
:100A3C0000002210000031108368194214BF0120FD
:100A4C00002070470AB1016170470904FBE7C368D5
:100A5C0001EA030221EA030141EA02410161704704
:100A6C0070470000044A08B55169014202D0506138
:100A7C00FFF7F6FF08BD00BF00040140016800222B
:100A8C004B6913F4806310D06FF480634B612023A7
:100A9C00026380F83D3080F83E20036C80F83C20E7
:100AAC0043F00403036401207047184670472DE996
:100ABC00F84606460F4691461D464FEA114A3368E2
:100ACC00BAF1010F0CBF5C699C6927EA0404A4B25B
:100ADC00B4FA84F46409A14501D0002025E06A1C15
:100AEC00EED0FFF749FE089BC01AA84201D8002D92
:100AFC00E5D13368BAF1010F0CBF5B699B6927EA3A
:100B0C0003039BB2B3FA83F35B099945D7D1002356
:100B1C0020220120336386F83D2086F83E30326C6B
:100B2C0086F83C3042F020023264BDE8F8862DE9AC
:100B3C00F04104460F46164698462568686927EA30
:100B4C00000080B2C0B16B695A0517D52B68202202
:100B5C0043F400732B606FF480636B610023236399
:100B6C0084F83D2084F83E30236C43F00403236466
:100B7C000023012084F83C30BDE8F081731CDDD0EB
:100B8C00FFF7FAFDA0EB0800B04201D8002ED4D13B
:100B9C0023685A6927EA020292B2002ACDD00023B8
:100BAC002022236384F83D2084F83E30236C1343C9
:100BBC00DDE770B504460D46164623685B691B06D7
:100BCC0001D500201EE02046FFF758FFC8B96A1C6B
:100BDC00F3D0FFF7D1FD801BA84201D8002DECD13A
:100BEC0023685B6913F08003E7D12022236384F828
:100BFC003D2084F83E30226C84F83C3042F02002D8
:100C0C002264012070BD70B504460D46164623685B
:100C1C005B695B0701D500201EE02046FFF72EFF25
:100C2C00C8B96A1CF3D0FFF7A7FD801BA84201D8F6
:100C3C00002DECD123685B6913F00403E7D120226B
:100C4C00236384F83D2084F83E30226C84F83C30D9
:100C5C0042F020022264012070BD000070B50446F1
:100C6C0008B9012070BD90F83D3003F0FF021BB9AC
:100C7C0080F83C20FFF776FC242384F83D30236871
:100C8C001A6822F001021A601A6842F400421A60D3
:100C9C001A6822F400421A6000F0C0FB3F4B6568F2
:100CAC009D4294BF3E4B3F4B98428CBF0023012387
:100CBC00002BD6D1394E3C4BB542B0FBF3F388BF79
:100CCC004FF496762268516821F03F0141EA030106
:100CDC0082BF73434FF47A76B3FBF6F35160116A1B
:100CEC00013321F03F010B431362D169431E2B48A2
:100CFC0021F44F41854221F0FF0132D86D00B3FB46
:100D0C00F5F340F6FC700133034242D0C3F30B03FE
:100D1C001943D1611168D4E9073021F0C0010343B4
:100D2C000B4313609168D4E9030321F4034103439B
:100D3C0021F0FF010B439360D168D4E9053021F019
:100D4C00FF0103430B43D3601368002043F00103FE
:100D5C0013602023206484F83D30206384F83E0027
:100D6C0080E7A06850B905EB4505B3FBF5F30133FB
:100D7C00C3F30B037BB143F40043C9E71920684369
:100D8C00B3FBF0F30133C3F30B0323B143F4404340
:100D9C00BEE70423BCE70123BAE700BFA08601002D
:100DAC007F841E00FF083D0040420F002DE9F043F8
:100DBC00044685B098460D4691460C9FFFF7DCFC27
:100DCC0094F83D300646202B04D00225284605B069
:100DDC00BDE8F08300901923012220465C49FFF7FF
:100DEC0066FE0028F1D194F83C30012BEDD00123A4
:100DFC00216884F83C300B68DA075EBF0B6843F05F
:100E0C0001030B600B6823F400630B60212384F84F
:100E1C003D30102384F83E3000232364A4F82A804C
:100E2C00638DC4F8249023854A4BE362E36A082B54
:100E3C0004D0012B02D013F5803F04D10B6843F48E
:100E4C0080730B6002E0236B122BF7D000223B4621
:100E5C004FF0011120460096FFF729FE226840B1A1
:100E6C001368DB0501D40125B0E74FF4007323644C
:100E7C00F9E72369B3F5804F21D105F0FE05156123
:100E8C0033463A4620463449FFF751FE05460028C2
:100E9C00E9D1236803905A6903929B690393039BDE
:100EAC00238DF3B921680A6842F400720A6020228B
:100EBC0084F83C3084F83D2084F83E3086E7EB1112
:100ECC0003F0060343F0F0031361204633463A4621
:100EDC002249FFF72CFE0028C5D12368EDB21D6115
:100EEC00CEE7324639462046FFF763FE40B1236C0D
:100EFC00042BB8D12268136843F400731360B2E773
:100F0C00636A20681A4612F8011B01616262628DE5
:100F1C00013A92B26285228DD0F814C0511E89B26A
:100F2C001CF0040F21850AD049B1597802330161B4
:100F3C006362638D023A013B9BB263852285324624
:100F4C0039462046FFF75FFE0028A9D0CFE700BF47
:100F5C00020010000000FFFF020001000800010069
:100F6C002DE9F341054638B30368DB0710D42B6831
:100F7C009F075ED42B68190700F195802B685A07E0
:100F8C0000F1C180EB69002B40F02C81002029E09E
:100F9C00904C636803F00C03042B07D0636803F0D8
:100FAC000C03082B0AD16368DE0307D523689C0366
:100FBC00DDD56B68002BDAD1012013E06B68B3F53B
:100FCC00803F12D1236843F480332360FFF7D4FBB6
:100FDC00064623689803CAD4FFF7CEFB801B64280F
:100FEC00F7D9032002B0BDE8F0819BB9236823F444
:100FFC0080332360236823F480232360FFF7BCFB3A
:10100C00064623689903B2D5FFF7B6FB801B64280C
:10101C00F7D9E6E7B3F5A02F236803D143F4802377
:10102C002360CFE723F480332360236823F48023E9
:10103C00CBE7684C636813F00C0F07D0636803F0C0
:10104C000C03082B10D16368DA030DD423689B07BB
:10105C0002D52B69012BAFD123686A6923F0F80301
:10106C0043EAC203236085E72A695B4B6AB101221C
:10107C001A60FFF781FB064623689F07ECD4FFF745
:10108C007BFB801B0228F7D9ABE71A60FFF774FBD8
:10109C000646236898077FF56DAFFFF76DFB801B45
:1010AC000228F6D99DE7AA694A4E4B4BE2B10122C0
:1010BC00C3F88024FFF760FB0446736A9B070DD5C9
:1010CC004FF4FA52454B1B68B3FBF2F3019300BF8C
:1010DC00019B5A1E0192002BF9D14FE7FFF74CFBF5
:1010EC00001B0228E9D97CE7C3F88024FFF744FBF6
:1010FC000446736A9F077FF541AFFFF73DFB001B6A
:10110C000228F6D96DE7334CE369D80024D40127C3
:10111C00E36943F08053E361E36903F08053009388
:10112C00009B2F4E3368D90518D5EB68012B26D1BF
:10113C00236A43F001032362FFF71EFB41F2883858
:10114C000646236A9B073FD5002F3FF41BAFE3698C
:10115C0023F08053E36115E70027E2E7336843F49B
:10116C0080733360FFF708FB80463368DA05DCD404
:10117C00FFF702FBA0EB08006428F6D931E7ABB906
:10118C00236A41F2883823F001032362236A23F097
:10119C0004032362FFF7F0FA0646236A9807D3D5B7
:1011AC00FFF7EAFA801B4045F7D91AE7052B236AAB
:1011BC0003D143F004032362BAE723F00103236253
:1011CC00236A23F00403B6E7FFF7D6FA801B4045E9
:1011DC00B7D906E70010024000004242040000208C
:1011EC00007000402A4C626802F00C02082A3ED0C3
:1011FC000022022B274B1A662CD1FFF7BDFA0646AC
:10120C002368990120D42B6AB3F5803F05D162681D
:10121C00A96822F400320A436260696A62680B436F
:10122C0022F474121343012263601A4B1A66FFF7FF
:10123C00A3FA054623689A013FF5A8AEFFF79CFA7E
:10124C00401B0228F6D9CCE6FFF796FA801B022841
:10125C00D6D9C6E6FFF790FA054623689B017FF5C1
:10126C0095AEFFF789FA401B0228F6D9B9E6012B97
:10127C003FF4A2AE60682B6A00F480329A427FF48D
:10128C009BAE6B6A00F47010C01A18BF0120A9E65F
:10129C0000100240000042420D4A536803F00C015A
:1012AC00082912D10B48C3F38341DB03405C09D5F9
:1012BC005368094AC3F340435043084AD35CB0FB1C
:1012CC00F3F07047064B584370470348704700BF14
:1012DC00001002407E21000800127A007C210008D8
:1012EC0000093D002DE9F0410D46044610B90120DE
:1012FC00BDE8F081444A136803F007038B4228D3FE
:10130C0021688E0730D4CA0743D43F4A136803F0D0
:10131C000703AB4265D822683C4D12F0040F6CD128
:10132C00130706D56B68226923F4605343EAC203A2
:10133C006B60FFF7B1FF6B68354AC3F30313D35CE3
:10134C00D840344B1860344B1868FFF7D3F90020A1
:10135C00CEE7136823F007030B431360136803F005
:10136C0007038B42C3D1CBE7284B11F0040F1EBFF0
:10137C005A6842F4E0625A60080742BF5A6842F465
:10138C0060525A605A68A06822F0F00202435A6018
:10139C00B9E762681D4E012A33681AD113F4003F75
:1013AC00A5D0736841F2883823F0030313437360AC
:1013BC00FFF7E2F907467368626803F00C03B3EBBE
:1013CC00820FA2D0FFF7D8F9C01B4045F3D90320F8
:1013DC008EE7022A02D113F0007FE1E713F0020F2F
:1013EC00DEE7136823F007032B431360136803F045
:1013FC000703AB427FF47BAF8DE76B68E16823F4A6
:10140C00E0630B436B608BE700200240001002404E
:10141C006C210008040000200C000020044B054A3D
:10142C005B68C3F30223D35C034A1068D84070474F
:10143C00001002406421000804000020044B054AFF
:10144C005B68C3F3C223D35C034A1068D84070476F
:10145C0000100240642100080400002010B504466E
:10146C000368C1681A6922F440520A431A618268FF
:10147C000069D9680243606921F4B05121F00C0174
:10148C0002430A43DA605A69A16922F440720A43A2
:10149C005A610E4A934215D1FFF7D0FF19234343EB
:1014AC00626820689200B3FBF2F36422B3FBF2F1A2
:1014BC0002FB11331B013233B3FBF2F303EB0113C9
:1014CC00836010BDFFF7AAFFE8E700BF00380140BA
:1014DC0010B5044648B390F8413003F0FF021BB935
:1014EC0080F84020FFF770F82423226884F84130FC
:1014FC00D368204623F40053D360FFF7AFFF236873
:10150C0000201A6922F490421A615A6922F02A02C8
:10151C005A61DA6842F40052DA602023606484F87D
:10152C00413084F84230606310BD0120FCE70000BC
:10153C0030B56425134B41EA00111B78124C41EA7B
:10154C00C30185B041F004010DF10F0201238DF8A8
:10155C000F1020464E210095FFF728FC0120FFF7C5
:10156C0011F99DF80F304E2123F004038DF80F3044
:10157C002046012300950DF10F02FFF717FC05B073
:10158C0030BD00BF100000204001002010B5044603
:10159C0000210009FFF7CCFF04F00F000021013CF3
:1015AC00FFF7C6FF012C04D8BDE810400220FFF75E
:1015BC00E9B810BD10B5044601210009FFF7B8FFCA
:1015CC0004F00F000121BDE81040FFF7B1BF08B5D2
:1015DC003220FFF7D7F800210320FFF7A9FF0520E1
:1015EC00FFF7D0F800210320FFF7A2FF0120FFF73F
:1015FC00C9F800210320FFF79BFF0120FFF7C2F879
:10160C0000210220FFF794FF2820FFF7BFFF0C20DA
:10161C00FFF7BCFF0620FFF7B9FF0120FFF7B6FF6D
:10162C00BDE808400220FFF7ADB810B5441E14F811
:10163C00010F00B910BDFFF7BDFFF8E7431E58427C
:10164C00584101EB801161F07F00C0B2FFF79EBFE3
:10165C0008B50120FFF79AFFBDE808400220FFF70C
:10166C0091B80000003818BF0120014B187070476A
:10167C00100000204FF480410148FFF7DDB900BF96
:10168C00000C01404FF400510148FFF7D5B900BFE1
:10169C00000C014038B5FFF7EDFF244C50B1244B42
:1016AC001D783DB901221A70FFF7ECFF214B257014
:1016BC00187038BDFFF7DEFF20BB1D4B1D780DB336
:1016CC006A1C1A70FFF7DEFF1A4B58550123237062
:1016DC00174A1378022BECD1002313702370154B8F
:1016EC001978012912D15B78002BE2D1124A1378B8
:1016FC0001335BB2137013785BB2642BD9DD6423B6
:10170C001370D6E72378002BE2D1D2E70029D0D191
:10171C005B78012BCDD1084A1378013B5BB2137077
:10172C0013781B0648BF1170C3E700BF9E01002051
:10173C009D0100209F0100209C01002010B5282055
:10174C00FFF782F8034B28201C78FFF76FF864B280
:10175C00E0B210BD9C0100200EB46FF0004100B54A
:10176C009CB01DAB02900690079104910848094962
:10177C0053F8042B0591006802A9019300F092F92B
:10178C000022029B1A701CB05DF804EB03B070478A
:10179C00140000200802FFFF03460244934200D1CC
:1017AC00704703F8011BF9E7014B1868704700BF3D
:1017BC001400002070B500260C4D0D4C641BA410B9
:1017CC00A64209D100F078FC00260A4D0A4C641B95
:1017DC00A410A64205D170BD55F8043B98470136BC
:1017EC00EEE755F8043B98470136F2E7C4210008B0
:1017FC00C4210008C4210008C821000870477047A4
:10180C0038B50546002940D051F8043C0C1F002B7C
:10181C00B8BFE41800F0DEF81C4A136833B96360F3
:10182C0014602846BDE8384000F0DAB8A34208D965
:10183C00206821188B4201BF19685B680918216068
:10184C00EDE71A465B680BB1A342FAD91168501840
:10185C00A0420BD120680144501883421160E0D1A2
:10186C0018685B68084410605360DAE702D90C23EF
:10187C002B60D6E7206821188B4201BF19685B6882
:10188C000918216063605460CBE738BDE802002082
:10189C0070B50F4E0C463168054611B900F0AAFB25
:1018AC0030602146284600F0A5FB431C03D14FF0C5
:1018BC00FF34204670BDC41C24F00304A042F8D0B1
:1018CC00211A284600F096FB0130F2D1EFE700BF59
:1018DC00E40200202DE9F843CD1C25F00305083562
:1018EC000C2D38BF0C25002D064601DBA94204D96E
:1018FC000C2333600020BDE8F883DFF8D48000F0BF
:10190C0069F8D8F800301C4644BB29463046FFF72E
:10191C00BFFF431C044658D1D8F800402746002F7F
:10192C0043D1002C4BD023683946304604EB0309D5
:10193C0000F060FB814542D1216830466D1A294682
:10194C00FFF7A6FF01303AD023682B442360D8F868
:10195C0000305A6862BBC8F800700FE02268521B56
:10196C0020D40B2A17D96119A342256018BF5960DE
:10197C00636808BFC8F8001062514B60304600F035
:10198C002FF804F10B00231D20F00700C21A1CBF16
:10199C001B1AA350AFE76268A3420CBFC8F8002023
:1019AC005A60EBE723466468AEE73C467F68B6E7CF
:1019BC001A465B68A342FBD100235360DEE70C237D
:1019CC003046336000F00CF894E70560D6E700BFB2
:1019DC00E80200200148FFF711BF00BFE002002021
:1019EC000148FFF70CBF00BFE00200202DE9F047D3
:1019FC001F468E688246BE420C4690460B682DD818
:101A0C00B1F90C2012F4906F26D06569096905EBC9
:101A1C004505A3EB010905EBD5757B1C4B446D10FB
:101A2C009D4238BF1D46530527D52946FFF752FF67
:101A3C00064660B34A46216900F0FAFAA38923F4FA
:101A4C00906343F08003A38126614E4426603E469A
:101A5C006561A5EB0905A560BE4200D93E4632463C
:101A6C004146206800F0ACFA0020A3689B1BA360E1
:101A7C00236833442360BDE8F0872A4600F0E6FA79
:101A8C0006460028E0D150462169FFF7B9FE0C2329
:101A9C00CAF80030A3894FF0FF3043F04003A38114
:101AAC00E9E700002DE9F04F98468B8907461B06A5
:101ABC000D4614469DB010D50B6973B94021FFF744
:101ACC0009FF2860286130B90C233B604FF0FF30D0
:101ADC001DB0BDE8F08F40236B61002309932023D8
:101AEC008DF8293030234FF00109CDF80C80DFF848
:101AFC0098818DF82A3023469A4613F8012B0AB1A7
:101B0C00252AF9D1BAEB040B0BD05B4622462946A9
:101B1C003846FFF76BFF013000F0A780099A5A4452
:101B2C0009929AF80030002B00F09F8000234FF0B0
:101B3C00FF32CDE905230AF1010A049307938DF8CE
:101B4C0053301A935446052214F8011B4E4800F0EA
:101B5C0061FA049AD8B9D00644BF20238DF85330CB
:101B6C00110744BF2B238DF853309AF800302A2BE1
:101B7C0015D0544600204FF00A0C079A214611F854
:101B8C00013B303B092B4BD9B0B1079214E0A0EBD1
:101B9C00080309FA03F31343A2460493D2E7039B09
:101BAC00191D1B680391002BBBBF5B4242F0020264
:101BBC0007930793B8BF049223782E2B0AD163782E
:101BCC002A2B32D1039B02341A1D1B68039243EA61
:101BDC00E3730593DFF8B4A003225046217800F09C
:101BEC0019FA38B14022049BA0EB0A00824013433F
:101BFC000134049314F8011B062225488DF8281093
:101C0C0000F008FA002836D0224B1BBB039B07338D
:101C1C0023F0070308330393099B334409936AE7C2
:101C2C000C4601200CFB0232A8E700234FF00A0CF3
:101C3C00194601340593204610F8012B303A092A35
:101C4C0003D9002BC6D00591C4E7044601230CFB35
:101C5C000121F0E703AB00932A4638460E4B04A94A
:101C6C00AFF30080421C0646D6D1AB895B063FF52C
:101C7C002DAF09982CE703AB00932A463846064B48
:101C8C0004A900F07DF8EDE78E21000894210008EE
:101C9C009821000800000000F91900082DE9F04710
:101CAC00164698468A680B6907469342B8BF134696
:101CBC00336091F843200C46DDF820900AB10133D3
:101CCC0033602368990642BF33680233336025685A
:101CDC0015F0060506D104F1190AE36832689B1A5F
:101CEC00AB422BDC94F843302268003B18BF012335
:101CFC00920630D44146384604F14302C8470130BD
:101D0C0023D02368226903F00603042B14BF00259B
:101D1C0033684FF0000608BFE56804F11A0408BFE9
:101D2C00ED1A54F8123C08BF25EAE5759342C4BF7E
:101D3C009B1AED18B5421AD1002008E00123524637
:101D4C0041463846C847013003D14FF0FF30BDE85B
:101D5C00F0870135C1E73020E11881F843005A1CA7
:101D6C0094F845102244023382F84310C2E7012351
:101D7C00224641463846C8470130E6D00136D9E7FD
:101D8C002DE9FF470F7E9146782F80460C469A46E8
:101D9C000C9E01F1430207D8622F0AD8002F00F0E5
:101DAC00D380582F00F0BA8004F1420684F84270B8
:101DBC003AE0A7F16303152BF6D801A151F823F0F3
:101DCC00251E0008391E0008B51D0008B51D0008A9
:101DDC00B51D0008B51D0008391E0008B51D00080A
:101DEC00B51D0008B51D0008B51D00083B1F0008F7
:101DFC00631E0008F51E0008B51D0008B51D00087F
:101E0C005D1F0008B51D0008631E0008B51D000805
:101E1C00B51D0008FD1E000833681A1D1B683260D2
:101E2C0004F1420684F8423001239EE033682068B6
:101E3C00191D3160060601D51D6803E04506FBD56A
:101E4C00B3F90050002D03DA2D236D4284F8433092
:101E5C000A23594811E021683368080653F8045BDB
:101E6C0002D4490648BFADB26F2F336014BF0A23AA
:101E7C0008235148002184F843106668002EA8BF3F
:101E8C002168A660A4BF21F0040121600DB9002EC9
:101E9C004BD01646B5FBF3F103FB1157C75D06F8A3
:101EAC00017D2F46BB420D46F4D9082B0BD123687C
:101EBC00DF0708D5236961689942DEBF302306F835
:101ECC00013C06F1FF36921B22614B4621464046EF
:101EDC00CDF800A003AAFFF7E1FE01304AD14FF084
:101EEC00FF3004B0BDE8F087236843F02003236083
:101EFC007827324884F84570236831681F0651F8FA
:101F0C00045B02D45F0648BFADB23160D90744BF51
:101F1C0043F0200323601DB11023ABE72648E9E70B
:101F2C00236823F020032360F6E71646BDE73368E9
:101F3C002568181D616930602E061B6801D5196073
:101F4C0002E06806FBD51980002316462361BCE726
:101F5C00336800211A1D32601E686268304600F03A
:101F6C0059F808B1801B606063682361002384F812
:101F7C004330AAE73246494640462369D0470130F0
:101F8C00ADD023689B0713D4E068039B9842B8BF7D
:101F9C001846A6E70123324649464046D047013051
:101FAC009DD00135E36803995B1AAB42F2DCEBE799
:101FBC00002504F11906F5E79F210008B02100085F
:101FCC00884210B501EB020402D98442234607D89B
:101FDC00431EA14208D011F8012B03F8012FF8E79A
:101FEC00014602448A4200D110BD13F8014D02F89B
:101FFC00014DF7E738B50023054D044608462B6024
:10200C00FEF730FB431C02D12B6803B1236038BDB3
:10201C00DC020020034610B5C9B2024493421846B4
:10202C0001D1002003E0047801338C42F6D110BDBD
:10203C000A44914200F1FF3300D1704710B511F8FA
:10204C00014B914203F8014FF9D110BD2DE9F0413C
:10205C00804615460C4621B91146BDE8F041FFF704
:10206C0039BC2AB9FFF7CCFB00242046BDE8F0812F
:10207C0000F01AF88542064602D8B5EB500FF4D89A
:10208C0029464046FFF726FC07460028ECD0B5420F
:10209C002A46214628BF3246FFF7CAFF2146404652
:1020AC00FFF7AEFB3C46E0E751F8043C181F002B51
:1020BC00BCBF0B58C0187047F8B500BFF8BC08BCC3
:1020CC009E467047F8B500BFF8BC08BC9E467047EA
:1020DC006974656D30000000000000000000000015
:1020EC004D0100086974656D3100000000000000AE
:1020FC0001000000610100086974656D3200000088
:10210C000000000002000000750100086974656D94
:10211C0033000000000000000300000089010008EB
:10212C006974656D3073657474656400257320255E
:10213C0064006974656D31736574746564006974E9
:10214C00656D32736574746564006974656D3373A1
:10215C006574746564003C00000000000102030417
:10216C00000000000000000001020304060708093B
:10217C00010202030405060708090A0B0C0D0E0FD9
:10218C001010232D302B2000686C4C0065666745C1
:10219C0046470030313233343536373839414243D3
:1021AC004445460030313233343536373839616284
:0821BC00636465660000000089
:0421C40031010008DD
:0421C8000D010008FD
:1021CC00010000000024F4000100000010000000D9
:1021DC00010000001800002000000000A4010020F5
:1021EC000C0200207402002000000000000000001F
:1021FC0000000000000000000000000000000000D3
:10220C0000000000000000000000000000000000C2
:10221C0000000000000000000000000000000000B2
:04222C0000000000AE
:04000005080006B534
:00000001FF
